:020000040800F2
:1000000000900020090B0008CD090008D509000860
:1000100000000000000000000000000000000000E0
:10002000000000000000000000000000DD090008E2
:100030000000000000000000E7090008F1090008C6
:10004000590B0008590B0008590B0008590B000800
:10005000590B0008590B0008590B0008590B0008F0
:10006000590B0008590B0008590B0008590B0008E0
:10007000590B0008590B0008590B0008590B0008D0
:10008000590B0008590B0008590B0008590B0008C0
:10009000590B0008590B0008590B0008590B0008B0
:1000A000590B0008590B0008590B0008590B0008A0
:0C00B000590B0008590B0008590B000800
:1000BC0010B5064C2378002B07D1054B002B02D032
:1000CC00044800E000BF0123237010BDE8000020AD
:1000DC0000000000B4360008044B10B5002B03D010
:1000EC000349044800E000BF10BDC04600000000FA
:1000FC00EC000020B4360008002243088B4274D375
:10010C0003098B425FD3030A8B4244D3030B8B420C
:10011C0028D3030C8B420DD3FF22090212BA030C15
:10012C008B4202D31212090265D0030B8B4219D3F6
:10013C0000E0090AC30B8B4201D3CB03C01A524116
:10014C00830B8B4201D38B03C01A5241430B8B425E
:10015C0001D34B03C01A5241030B8B4201D30B0347
:10016C00C01A5241C30A8B4201D3CB02C01A52416E
:10017C00830A8B4201D38B02C01A5241430A8B4231
:10018C0001D34B02C01A5241030A8B4201D30B021A
:10019C00C01A5241CDD2C3098B4201D3CB01C01A34
:1001AC00524183098B4201D38B01C01A524143093E
:1001BC008B4201D34B01C01A524103098B4201D32C
:1001CC000B01C01A5241C3088B4201D3CB00C01A99
:1001DC00524183088B4201D38B00C01A5241430811
:1001EC008B4201D34B00C01A5241411A00D2014636
:1001FC00524110467047FFE701B5002000F0F0F8BF
:10020C0002BDC0460029F7D076E7704703460B4382
:10021C007FD4002243088B4274D303098B425FD3F3
:10022C00030A8B4244D3030B8B4228D3030C8B421F
:10023C000DD3FF22090212BA030C8B4202D3121205
:10024C00090265D0030B8B4219D300E0090AC30BDA
:10025C008B4201D3CB03C01A5241830B8B4201D387
:10026C008B03C01A5241430B8B4201D34B03C01A70
:10027C005241030B8B4201D30B03C01A5241C30AE8
:10028C008B4201D3CB02C01A5241830A8B4201D359
:10029C008B02C01A5241430A8B4201D34B02C01A43
:1002AC005241030A8B4201D30B02C01A5241CDD2E8
:1002BC00C3098B4201D3CB01C01A524183098B4233
:1002CC0001D38B01C01A524143098B4201D34B011C
:1002DC00C01A524103098B4201D30B01C01A52417F
:1002EC00C3088B4201D3CB00C01A524183088B4206
:1002FC0001D38B00C01A524143088B4201D34B00EF
:10030C00C01A5241411A00D2014652411046704760
:10031C005DE0CA0F00D04942031000D34042534065
:10032C0000229C4603098B422DD3030A8B4212D325
:10033C00FC22890112BA030A8B420CD38901921157
:10034C008B4208D3890192118B4204D389013AD094
:10035C00921100E08909C3098B4201D3CB01C01A69
:10036C00524183098B4201D38B01C01A524143097C
:10037C008B4201D34B01C01A524103098B4201D36A
:10038C000B01C01A5241C3088B4201D3CB00C01AD7
:10039C00524183088B4201D38B00C01A5241D9D2EF
:1003AC0043088B4201D34B00C01A5241411A00D270
:1003BC000146634652415B10104601D34042002B6C
:1003CC0000D54942704763465B1000D3404201B5EB
:1003DC00002000F005F802BD0029F8D016E77047A0
:1003EC007047C046002B11D1002A0FD1002900D133
:1003FC00002802D00021C943080007B4024802A11A
:10040C004018029003BDC046D9FFFFFF03B46846F5
:10041C0001B5029800F006F8019B9E4602B00CBC98
:10042C007047C046F0B557464E464546DE46E0B5E9
:10043C0004000D009246994683B08B4230D82DD0E3
:10044C004946504600F0BAF829000600200000F09A
:10045C00B5F8331A9846203B34D49B4653465A463B
:10046C00934042461F00534693401E00AF423BD878
:10047C00AF4200D179E05B46A41BBD41002B00DAF2
:10048C0076E0002200230092019301235A46934008
:10049C000193012342469340009329E08242CFD935
:1004AC0000220023009201930C9B002B01D01C60B6
:1004BC005D600098019903B0F0BCBB46B246A946FA
:1004CC00A046F0BD42469B4620239B1A5246DA407A
:1004DC00414613004A468A40170042461F43534682
:1004EC0093401E00AF42C3D9002200230092019317
:1004FC004346002BD8D0FB0772081A4346467B08AC
:10050C000EE0AB4201D1A2420CD8A41A9D410120AD
:10051C0024196D410021013E24184D41002E06D0B6
:10052C00AB42EED9013E24196D41002EF8D1009852
:10053C0001995B4600196941002B24DB2B005A46BC
:10054C004446D3402A00E2401C005B461500002BB9
:10055C002ADB26009E40330026004746BE40320070
:10056C00801A9941009001919EE7A342BCD882E782
:10057C004246202300219B1A002200910192012265
:10058C00DA40019285E7424620239B1A2A00464610
:10059C009A402300F340444613432A00E2401C00D7
:1005AC005B461500002BD4DA42462F002023260090
:1005BC0097409B1ADE403B003343CDE710B5002932
:1005CC0003D100F007F8203002E0080000F002F838
:1005DC0010BDC0461C2101231B04984201D3000C02
:1005EC0010391B0A984201D3000A08391B0998429A
:1005FC0001D30009043902A2105C40187047C046B0
:10060C0004030202010101010000000000000000CF
:10061C0080B584B000AF154B180002F07BFC144B76
:10062C001B68144A1A4080239B059A4215D1124B21
:10063C00180002F06FFC642000F010FB0F4B1B68DD
:10064C00FB60FB68BB600A4B1B687B607B6883F3B9
:10065C000888C046BB68984703E0094B180002F0B5
:10066C0059FCC046BD4604B080BDC046CC3600081F
:10067C00008000080000FE2FE0360008048000080F
:10068C00F036000880B586B000AFF860B9607A60CB
:10069C0000237B610AE0B9684B1CBB6008486423EB
:1006AC00012201F06DFC7B6901337B617A697B6807
:1006BC009A42F0DB7B681800BD4606B080BDC04690
:1006CC000401002080B500AF00F042FA00F007F8FA
:1006DC0000F09CF800F04CF8FFF79AFFFCE790B59F
:1006EC0093B000AF10243B19180038231A000021D6
:1006FC0002F006FD3B00180010231A00002102F046
:10070C00FFFC80239B00180000F01CFD3B1902220B
:10071C001A603B1980225200DA603B1900221A61E0
:10072C003B1940225A613B190022DA613B1918002F
:10073C0000F054FD031E01D000F0B8F83B00072276
:10074C001A603B0000225A603B0000229A603B007A
:10075C000022DA603B000021180001F059F8031E5A
:10076C0001D000F0A3F8C046BD4613B090BD000008
:10077C0080B500AF234B244A1A60224BE12252026F
:10078C005A60204B00229A601E4B0022DA601D4BEF
:10079C0000221A611B4B0C225A611A4B00229A61DF
:1007AC00184B0022DA61174B00221A62154B0022FB
:1007BC005A62144B00229A62124B180001F08AFB09
:1007CC00031E01D000F072F80E4B0021180002F04D
:1007DC00A7F9031E01D000F069F80A4B002118009C
:1007EC0002F0DEF9031E01D000F060F8054B180092
:1007FC0002F05CF9031E01D000F058F8C046BD466B
:10080C0080BDC046040100200044004090B589B072
:10081C0000AF0C243B19180014231A00002102F01D
:10082C006FFC214B5A6B204B04210A435A631E4B1D
:10083C005B6B04221340BB60BB681B4B5A6B1A4B9F
:10084C0020210A435A63184B5B6B202213407B60B8
:10085C007B68154B5A6B144B01210A435A63124B9C
:10086C005B6B012213403B603B68A023DB0500223D
:10087C002021180000F02EFC21007B1820221A6089
:10088C007B1801225A607B1800229A607B18022286
:10089C00DA607A18A023DB051100180000F0B6FA14
:1008AC00C046BD4609B090BD0010024080B500AFF7
:1008BC0072B6C046C046FDE780B582B000AF0F4BA4
:1008CC001A6C0E4B01210A431A640C4B1B6C01224F
:1008DC0013407B607B68094BDA6B084B8021490520
:1008EC000A43DA63054BDA6B80235B0513403B60EC
:1008FC003B68C046BD4602B080BDC04600100240F9
:10090C0090B597B000AF78604423FB1818001423FF
:10091C001A00002102F0F4FB10243B1918003423B8
:10092C001A00002102F0ECFB7B681B68224A934200
:10093C003ED13B1902221A603B1900229A603B19E6
:10094C00180001F00FF9031E01D0FFF7AFFF1B4B8E
:10095C00DA6B1A4B802189020A43DA63174BDA6B84
:10096C0080239B021340FB60FB68144B5A6B134BA8
:10097C0001210A435A63114B5B6B01221340BB608C
:10098C00BB6844217B180C221A607B1802225A6027
:10099C007B1801229A607B180022DA607B180122F6
:1009AC001A617A18A023DB051100180000F02EFA4A
:1009BC00C046BD4617B090BD004400400010024038
:1009CC0080B500AFC046FDE780B500AFC046FDE77F
:1009DC0080B500AFC046BD4680BD80B500AFC046F7
:1009EC00BD4680BD80B500AF00F01CF9C046BD46C9
:1009FC0080BD80B586B000AFF860B9607A60002326
:100A0C007B610AE000E000BF0100BB685A1CBA60C1
:100A1C00CAB21A707B6901337B617A697B689A422E
:100A2C00F0DB7B681800BD4606B080BD80B582B097
:100A3C0000AF786001235B421800BD4602B080BD58
:100A4C0080B582B000AF786039603B68802292013B
:100A5C005A6000231800BD4602B080BD80B582B03C
:100A6C0000AF786001231800BD4602B080BD80B590
:100A7C0084B000AFF860B9607A6000231800BD46FE
:100A8C0004B080BD80B586B000AF7860144A154BB9
:100A9C00D31A7B617B693B61134B1B68002B02D122
:100AAC00114B124A1A60104B1A687B68D3183A69BA
:100ABC009A4207D202F07AFB03000C221A6001233F
:100ACC005B4209E0084B1B68FB60074B1A687B68AC
:100ADC00D218054B1A60FB681800BD4606B080BDE5
:100AEC00009000200004000098010020F00200207B
:100AFC0080B500AFC046BD4680BD00000D488546A0
:100B0C00FFF7F6FF0C480D490D4A002302E0D458BC
:100B1C00C4500433C4188C42F9D30A4A0A4C00233B
:100B2C0001E013600432A242FBD302F045FBFFF755
:100B3C00C9FDFEE70090002080000020E8000020A6
:100B4C0098370008E8000020EC020020FEE70000C7
:100B5C0080B582B000AFFB1D00221A700B4B1A68D7
:100B6C000A4B802149000A431A60002000F010F85B
:100B7C00031E03D0FB1D01221A7001E0FFF79CFE3F
:100B8C00FB1D1B781800BD4602B080BD0020024042
:100B9C0090B585B000AF78600F23FB1800221A7057
:100BAC001D4B1B78002B2BD01C4B1C681A4B1B7835
:100BBC001900FA239800FFF79FFA03001900200090
:100BCC00FFF79AFA0300180000F013F9031E12D174
:100BDC007B68032B0AD8796801235B42002218003A
:100BEC0000F0F2F80E4B7A681A600DE00F23FB1838
:100BFC0001221A7008E00F23FB1801221A7003E07F
:100C0C000F23FB1801221A700F23FB181B781800F6
:100C1C00BD4605B090BDC046880000208000002075
:100C2C008400002080B500AF054B1B781A00054BE3
:100C3C001B68D218034B1A60C046BD4680BDC04627
:100C4C00880000209C01002080B500AF024B1B687F
:100C5C001800BD4680BDC0469C01002080B584B004
:100C6C0000AF7860FFF7F0FF0300BB607B68FB60B0
:100C7C00FB68013305D00A4B1B781A00FB689B18E4
:100C8C00FB60C046FFF7E0FF0200BB68D31AFA68AE
:100C9C009A42F7D8C046C046BD4604B080BDC04697
:100CAC008800002090B583B000AF02003960FB1DB6
:100CBC001A70FB1D1B787F2B28D82F4AFB1D1B7825
:100CCC005BB29B08C0339B009B58FA1D1278110035
:100CDC0003220A40D200FF2191400A00D2431A405D
:100CEC0011003B689B01FF221A40FB1D1B7818006A
:100CFC0003230340DB009A401F48FB1D1B785BB2AB
:100D0C009B080A43C0339B001A5031E01B4AFB1D61
:100D1C001B7819000F230B40083B9B0806339B00E4
:100D2C00D31804331B68FA1D1278110003220A40F1
:100D3C00D200FF2191400A00D2431A4011003B68B7
:100D4C009B01FF221A40FB1D1B7818000323034054
:100D5C00DB009A400948FB1D1B781C000F23234025
:100D6C00083B9B080A4306339B00C31804331A60E4
:100D7C00C046BD4603B090BD00E100E000ED00E0D0
:100D8C0080B582B000AF78607B685A1E80235B040C
:100D9C009A4201D3012310E00A4B7A68013A5A6057
:100DAC0001235B4203211800FFF77CFF054B002257
:100DBC009A60044B07221A6000231800BD4602B04B
:100DCC0080BDC04610E000E080B584B000AFB960D3
:100DDC007A600F217B18021C1A70BA687B181B787A
:100DEC005BB211001800FFF75DFFC046BD4604B0B2
:100DFC0080BD80B582B000AF78607B681800FFF7CB
:100E0C00BFFF03001800BD4602B080BD80B586B0A0
:100E1C0000AF7860396000237B6147E13B681B6859
:100E2C0001217A6991400A001340FB60FB68002B9A
:100E3C0000D138E13B685B6803221340012B05D0DD
:100E4C003B685B6803221340022B30D17B689B68A4
:100E5C003B617B695B0003229A401300DA433B69D8
:100E6C0013403B613B68DA687B695B009A40130076
:100E7C003A6913433B617B683A699A607B685B68AB
:100E8C003B6101227B699A401300DA433B691340B2
:100E9C003B613B685B681B0901221A407B699A40E5
:100EAC0013003A6913433B617B683A695A603B68AB
:100EBC005B6803221340032B17D07B68DB683B6114
:100ECC007B695B0003229A401300DA433B691340B1
:100EDC003B613B689A687B695B009A4013003A69F6
:100EEC0013433B617B683A69DA603B685B680322B9
:100EFC001340022B23D17B69DA087B6808329200FD
:100F0C00D3583B617B69072213409B000F229A4008
:100F1C001300DA433B6913403B613B681A697B69F8
:100F2C0007210B409B009A4013003A6913433B6125
:100F3C007B69DA087B68083292003969D1507B688A
:100F4C001B683B617B695B0003229A401300DA4308
:100F5C003B6913403B613B685B6803221A407B6929
:100F6C005B009A4013003A6913433B617B683A6912
:100F7C001A603B685A68C0239B02134000D192E070
:100F8C00504A7B699B0818339B009B583B617B69DB
:100F9C0003221340DB000F229A401300DA433B6913
:100FAC0013403B617A68A023DB059A4213D07B681F
:100FBC00454A93420DD07B68444A934207D07B68E4
:100FCC00434A934201D1032306E0052304E00223A4
:100FDC0002E0012300E000237A6903210A40D200D9
:100FEC0093403A6913433B6136497B699B0818333C
:100FFC009B003A695A50334B1B683B61FB68DA43E0
:10100C003B6913403B613B685A6880235B03134088
:10101C0003D03A69FB6813433B612A4B3A691A6067
:10102C00284B5B683B61FB68DA433B6913403B61CF
:10103C003B685A6880239B03134003D03A69FB68D2
:10104C0013433B611F4B3A695A601E4A8423D358A1
:10105C003B61FB68DA433B6913403B613B685A6870
:10106C0080239B02134003D03A69FB6813433B6116
:10107C00144984223B698B50124A8023D3583B611C
:10108C00FB68DA433B6913403B613B685A68802339
:10109C005B02134003D03A69FB6813433B61094977
:1010AC0080223B698B507B6901337B613B681A68FA
:1010BC007B69DA40131E00D0B0E6C046C046BD4680
:1010CC0006B080BD0018024000040050000800501B
:1010DC00000C005080B582B000AF786008001100A1
:1010EC00BB1C021C1A807B1C0A1C1A707B1C1B78F4
:1010FC00002B04D0BB1C1A887B689A6103E0BB1CD4
:10110C001A887B689A62C046BD4602B080BD80B525
:10111C0084B000AF78600A00BB1C1A807B685B69E6
:10112C00FB60BB1C1B88FA6813401A04FB68DB438A
:10113C00B91C09880B401A437B689A61C046BD46AE
:10114C0004B080BD80B584B000AF7860194B1B68CB
:10115C00194A13401900174B7A680A431A607A68C7
:10116C0080239B009A421FD1144B1A6813005B001A
:10117C009B185B0012491800FEF7BEFF03000133F9
:10118C00FB6008E0FB68002B03D0FB68013BFB60B5
:10119C0001E0032309E0074B5A698023DB001A4066
:1011AC008023DB009A42EDD000231800BD4604B02A
:1011BC0080BDC04600700040FFF9FFFF800000209A
:1011CC0040420F0080B500AF034B9A68E023DB016F
:1011DC0013401800BD4680BD0010024080B588B099
:1011EC0000AF78607B68002B01D10123FEE27B68A5
:1011FC001B680122134000D17CE0C34B9B68382252
:10120C001340BB61C04BDB68032213407B61BB699D
:10121C00102B02D17B69032B02D0BB69082B0BD19D
:10122C00B94B1A6880239B02134062D07B685B68C1
:10123C00002B5ED10123D9E27B685A6880235B02C4
:10124C009A4207D1B04B1A68AF4B802149020A432E
:10125C001A6020E07B685A68A023DB029A420ED108
:10126C00A94B1A68A84B8021C9020A431A60A64BE5
:10127C001A68A54B802149020A431A600BE0A24B65
:10128C001A68A14BA1490A401A609F4B1A689E4BE1
:10129C009F490A401A607B685B68002B14D0FFF7EB
:1012AC00D3FC03003B6108E0FFF7CEFC02003B6976
:1012BC00D31A642B01D9032398E2934B1A68802329
:1012CC009B021340F0D015E0FFF7BEFC03003B611E
:1012DC0008E0FFF7B9FC02003B69D31A642B01D973
:1012EC00032383E2884B1A6880239B021340F0D1BE
:1012FC0000E0C0467B681B680222134000D199E0D5
:10130C00814B9B6838221340BB617F4BDB68032207
:10131C0013407B61BB69102B02D17B69022B02D07D
:10132C00BB69002B35D1784B1A688023DB00134046
:10133C0005D07B68DB68002B01D1012356E2724B90
:10134C005B68744A134019007B685B691A026E4B28
:10135C000A435A60BB69002B12D16B4B1B686E4A57
:10136C00134019007B681A69674B0A431A60664B75
:10137C001B68DB0A07221340684ADA40684B1A6084
:10138C00684B1B681800FFF703FC031E51D00123A8
:10139C002CE27B68DB68002B30D05B4B1B685E4A11
:1013AC00134019007B681A69574B0A431A60564B55
:1013BC001A68554B802149000A431A60FFF744FC18
:1013CC0003003B6108E0FFF73FFC02003B69D31AC6
:1013DC00022B01D9032309E24B4B1A688023DB0053
:1013EC001340F0D0484B5B684A4A134019007B68A5
:1013FC005B691A02444B0A435A601BE0424B1A6861
:10140C00414B49490A401A60FFF71EFC03003B613F
:10141C0008E0FFF719FC02003B69D31A022B01D933
:10142C000323E3E1384B1A688023DB001340F0D12F
:10143C0000E0C0467B681B680822134047D0324B43
:10144C009B6838221340182B0AD12F4B1B6E02229B
:10145C0013403CD07B689B69002B38D10123C5E13C
:10146C007B689B69002B19D0274B1A6E264B0121E8
:10147C000A431A66FFF7E8FB03003B6108E0FFF73D
:10148C00E3FB02003B69D31A022B01D90323ADE124
:10149C001D4B1B6E02221340F1D018E01A4B1A6E32
:1014AC00194B01218A431A66FFF7CEFB03003B61FF
:1014BC0008E0FFF7C9FB02003B69D31A022B01D9E4
:1014CC00032393E1104B1B6E02221340F1D17B6876
:1014DC001B680422134000D1C6E01F23FB18002216
:1014EC001A70094B9B6838221340202B1ED1064BD7
:1014FC00DB6D0222134000D1B6E07B689B68002BA9
:10150C0000D0B1E0012371E100100240FFFFFEFFAB
:10151C00FFFFFBFFFF80FFFFFFC7FFFF0024F4006E
:10152C008000002084000020FFFEFFFFB14BDA6B2F
:10153C0080235B05134001D1012300E00023002B25
:10154C0011D0AC4BDA6BAB4B802149050A43DA6303
:10155C00A84BDA6B80235B051340FB60FB681F23F1
:10156C00FB1801221A70A44B1A6880235B001340ED
:10157C001AD1A14B1A68A04B802149000A431A606A
:10158C00FFF762FB03003B6108E0FFF75DFB020025
:10159C003B69D31A022B01D9032327E1964B1A6816
:1015AC0080235B001340F0D07B689B68012B06D135
:1015BC00904BDA6D8F4B01210A43DA651CE07B6896
:1015CC009B68052B0CD18B4BDA6D8A4B04210A439B
:1015DC00DA65884BDA6D874B01210A43DA650BE03B
:1015EC00844BDA6D834B01218A43DA65814BDA6DCA
:1015FC00804B04218A43DA657B689B68002B14D0EE
:10160C00FFF722FB03003B6109E0FFF71DFB020023
:10161C003B69D31A794A934201D90323E6E0754B0F
:10162C00DB6D02221340F0D013E0FFF70DFB03003B
:10163C003B6109E0FFF708FB02003B69D31A6F4AD4
:10164C00934201D90323D1E06A4BDB6D0222134094
:10165C00F0D11F23FB181B78012B05D1654BDA6BDE
:10166C00644B67490A40DA637B68DB69002B00D165
:10167C00BBE0604B9B6838221340102B00D17BE001
:10168C007B68DB69022B56D15A4B1A68594B5D4962
:10169C000A401A60FFF7D8FA03003B6108E0FFF735
:1016AC00D3FA02003B69D31A022B01D903239DE024
:1016BC00504B1A6880239B041340F0D14D4BDB68D0
:1016CC00514A134019007B681A6A7B685B6A1A439B
:1016DC007B689B6A1B021A437B68DB6A1A437B6834
:1016EC001B6B1A437B685B6B1A43424B0A43DA60F1
:1016FC00404B1A683F4B802149040A431A603D4B0A
:10170C00DA683C4B802149050A43DA60FFF79CFA02
:10171C0003003B6108E0FFF797FA02003B69D31A1C
:10172C00022B01D9032361E0324B1A6880239B04FE
:10173C001340F0D059E02F4B1A682E4B31490A4018
:10174C001A60FFF781FA03003B6108E0FFF77CFAAF
:10175C0002003B69D31A022B01D9032346E0254B27
:10176C001A6880239B041340F0D1224BDA68214B7A
:10177C0026490A40DA6038E07B68DB69012B01D12D
:10178C00012333E01B4BDB687B617B6903221A402E
:10179C007B681B6A9A4226D17B6970221A407B684F
:1017AC005B6A9A421FD17A69FE23DB011A407B687F
:1017BC009B6A1B029A4216D17A69F8239B031A4042
:1017CC007B68DB6A9A420ED17A69E0231B051A40CA
:1017DC007B681B6B9A4206D17B695B0F5A077B684F
:1017EC005B6B9A4201D0012300E000231800BD4638
:1017FC0008B080BD0010024000700040881300004B
:10180C00FFFFFFEFFFFFFFFE8C80C111FCFFFEEE20
:10181C0080B584B000AF786039607B68002B01D153
:10182C000123E9E0764B1B68072213403A689A4281
:10183C001ED9734B1B68072293431900704B3A68EF
:10184C000A431A60FFF700FA0300FB6009E0FFF798
:10185C00FBF90200FB68D31A6A4A934201D90323AD
:10186C00CAE0674B1B68072213403A689A42EED1D4
:10187C007B681B680222134015D07B681B6804220E
:10188C00134006D0604B9A685F4BE021C9010A43B4
:10189C009A605D4B9B685D4A134019007B689A689F
:1018AC00594B0A439A607B681B680122134057D03E
:1018BC007B685B68012B07D1534B1A6880239B0212
:1018CC0013402BD1012397E07B685B68022B07D177
:1018DC004D4B1A6880239B0413401FD101238BE0CE
:1018EC007B685B68002B07D1474B1A688023DB00B1
:1018FC00134013D101237FE07B685B68032B06D177
:10190C00414B1B6E0222134008D1012374E03E4B65
:10191C00DB6D0222134001D101236DE03A4B9B6831
:10192C000722934319007B685A68374B0A439A6025
:10193C00FFF78AF90300FB6009E0FFF785F9020065
:10194C00FB68D31A2F4A934201D9032354E02E4B40
:10195C009B6838221A407B685B68DB009A42ECD1AA
:10196C00274B1B68072213403A689A421ED2244B1D
:10197C001B68072293431900214B3A680A431A60EB
:10198C00FFF762F90300FB6009E0FFF75DF9020065
:10199C00FB68D31A1B4A934201D903232CE0184B42
:1019AC001B68072213403A689A42EED17B681B6889
:1019BC000422134009D0144B9B68154A134019009C
:1019CC007B68DA68104B0A439A6000F029F8010032
:1019DC000D4B9B681B0A0F221A400E4B9200D358DA
:1019EC001F2213400A00DA400B4B1A600B4B1B688A
:1019FC001800FFF7CDF803001800BD4604B080BDF9
:101A0C00002002408813000000100240FFF0FFFF8E
:101A1C00FF8FFFFF003700088000002084000020AB
:101A2C0080B586B000AF3C4B9B68382213400FD179
:101A3C00394B1B68DB0A0722134001229A40130022
:101A4C003B6039683548FEF757FB03003B615DE0AE
:101A5C00314B9B6838221340082B02D1304B3B6131
:101A6C0054E02D4B9B6838221340102B38D12A4B55
:101A7C00DB6803221340FB60274BDB681B09072242
:101A8C0013400133BB60FB68032B0DD1B9682448AC
:101A9C00FEF732FB030019001F4BDB681B0A7F2289
:101AAC0013404B437B610DE0B9681C48FEF724FBE7
:101ABC0003001900184BDB681B0A7F2213404B43B1
:101ACC007B61C046144BDB685B0F0722134001336C
:101ADC007B6079687869FEF70FFB03003B6115E0CA
:101AEC000D4B9B6838221340202B03D180231B0203
:101AFC003B610BE0084B9B6838221340182B03D139
:101B0C00FA23DB013B6101E000233B613B691800D8
:101B1C00BD4606B080BDC046001002400024F40053
:101B2C0000127A0080B500AF024B1B681800BD464E
:101B3C0080BDC04680000020B0B500AFFFF7F2FFBB
:101B4C000400FFF73FFB03001A0B054B9200D35820
:101B5C001F221340DC4023001800BD46B0BDC04618
:101B6C004037000880B586B000AF78601323FB18AF
:101B7C0000221A701223FB1800221A707B681A6854
:101B8C0080239B02134000D1A3E011203B180022BC
:101B9C001A70C34BDA6B80235B05134010D1C04B1A
:101BAC00DA6BBF4B802149050A43DA63BC4BDA6B15
:101BBC0080235B051340BB60BB683B1801221A7085
:101BCC00B84B1A68B74B802149000A431A60FFF7DB
:101BDC003BF80300FB600BE0FFF736F80200FB68F4
:101BEC00D31A022B04D91323FB1803221A7005E015
:101BFC00AC4B1A6880235B001340EDD01323FB1809
:101C0C001B78002B54D1A64BDA6DC0239B001340DC
:101C1C007B617B69002B19D07B681B6B7A699A42BC
:101C2C0014D09F4BDB6DA04A13407B619C4BDA6D4B
:101C3C009B4B802149020A43DA65994BDA6D984B2C
:101C4C009A490A40DA65964B7A69DA657B69012212
:101C5C00134016D0FEF7F8FF0300FB600CE0FEF714
:101C6C00F3FF0200FB68D31A914A934204D9132361
:101C7C00FB1803221A7004E0894BDB6D022213401F
:101C8C00EDD01323FB181B78002B0AD1844BDB6D92
:101C9C00854A134019007B681A6B814B0A43DA653D
:101CAC000CE01223FB181322BA1812781A7005E0F4
:101CBC001223FB181322BA1812781A701123FB186E
:101CCC001B78012B05D1764BDA6B754B79490A40A1
:101CDC00DA637B681B680122134009D0704B5B6D83
:101CEC000322934319007B685A686D4B0A435A656B
:101CFC007B681B680222134009D0694B5B6D0C2278
:101D0C00934319007B689A68654B0A435A657B6854
:101D1C001B681022134009D0614B5B6D664A13405F
:101D2C0019007B68DA685E4B0A435A657B681A684F
:101D3C0080239B00134009D0594B5B6D5F4A1340C5
:101D4C0019007B689A69564B0A435A657B681A6876
:101D5C008023DB00134009D0514B5B6D584A134074
:101D6C0019007B68DA694E4B0A435A657B681B681D
:101D7C002022134009D04A4B5B6D524A1340190084
:101D8C007B681A69464B0A435A657B681A6880233C
:101D9C00DB01134015D0424B5B6D9B0099087B68AF
:101DAC001A6A3F4B0A435A657B681A6A8023DB0523
:101DBC009A4206D13A4BDA68394B802149020A43E0
:101DCC00DA607B681A6880231B03134009D0344BFC
:101DDC005B6D4022934319007B685A6A304B0A436F
:101DEC005A657B681A6880239B03134016D02C4BD2
:101DFC005B6D354A134019007B689A6A284B0A437D
:101E0C005A657B689A6A8023DB039A4206D1244B7D
:101E1C00DA68234B802149040A43DA607B681A682C
:101E2C008023DB03134016D01D4B5B6D274A1340F8
:101E3C0019007B68DA6A1A4B0A435A657B68DA6ABE
:101E4C0080235B049A4206D1154BDA68144B80212F
:101E5C0049040A43DA607B681A6880231B0113402B
:101E6C0016D00F4B5B6D1A4A134019007B685A69E8
:101E7C000B4B0A435A657B685A698023DB019A42F3
:101E8C0006D1074BDA68064B802149020A43DA6017
:101E9C001223FB181B781800BD4606B080BDC04647
:101EAC000010024000700040FFFCFFFFFFFFFEFF30
:101EBC0088130000FFFFFFEFFFF3FFFFFFFFF3FFAF
:101ECC00FFFFCFFFFFCFFFFFFFFFBFFFFFFFFFFEB7
:101EDC00FF3FFFFF80B582B000AF78607B68002BBE
:101EEC0001D1012346E07B6888229B58002B07D147
:101EFC007B688422002199547B681800FEF700FD52
:101F0C007B688822242199507B681B681A687B683F
:101F1C001B6801218A431A607B689B6A002B03D0E3
:101F2C007B68180000F08EFB7B68180000F0CCF882
:101F3C000300012B01D101231CE07B681B685A684C
:101F4C007B681B680D490A405A607B681B689A685D
:101F5C007B681B682A218A439A607B681B681A6815
:101F6C007B681B6801210A431A607B68180000F02B
:101F7C001DFC03001800BD4602B080BDFFB7FFFF7B
:101F8C0080B58AB002AFF860B9603B60BB1D1A80A7
:101F9C00FB6888229B58202B00D090E0BB68002B5C
:101FAC0003D0BB1D1B88002B01D1012388E0FB68EB
:101FBC009A6880235B019A4209D1FB681B69002B4C
:101FCC0005D1BB680122134001D0012378E0FB68E6
:101FDC00902200219950FB68882221219950FEF70C
:101FEC0033FE03007B61FB68BA1D542112885A52E0
:101FFC00FB68BA1D562112885A52FB689A688023D6
:10200C005B019A4208D1FB681B69002B04D10023A9
:10201C00FB61BB68BB6103E0BB68FB610023BB6178
:10202C0030E07A69F8683B68009313000022802145
:10203C0000F066FC031E05D0FB6888222021995015
:10204C0003233DE0FB69002B0BD1BB691B881A00F5
:10205C00FB681B68D205D20D9A62BB690233BB6167
:10206C0007E0FB691A78FB681B689A62FB6901330D
:10207C00FB61FB6856229B5A9BB2013B99B2FB68F1
:10208C0056229952FB6856229B5A9BB2002BC8D100
:10209C007A69F8683B68009313000022402100F035
:1020AC002FFC031E05D0FB688822202199500323A6
:1020BC0006E0FB68882220219950002300E00223CF
:1020CC001800BD4608B080BDB0B590B000AF7862C6
:1020DC001A2320229B18DB1900221A707B6A9A683B
:1020EC007B6A1B691A437B6A5B691A437B6ADB69EF
:1020FC001343FB637B6A1B681B68AF4A13401900D0
:10210C007B6A1A68FB6B0B4313607B6A1B685B680A
:10211C00AA4A134018007B6AD9687B6A1A680300C4
:10212C000B4353607B6A9B69FB637B6A1B68A44A05
:10213C00934204D07B6A1B6AFA6B1343FB637B6A82
:10214C001B689B689F4A134019007B6A1A68FB6BDB
:10215C000B4393607B6A1B68DB6A0F229343180066
:10216C007B6A596A7B6A1A6803000B43D3627B6AE9
:10217C001B68954A934231D1944B5B6D03221340FB
:10218C00032B1DD023D8022B0CD020D8002B02D02F
:10219C00012B0ED01BE01B2320229B18DB190022E5
:1021AC001A70B4E01B2320229B18DB1902221A7030
:1021BC00ADE01B2320229B18DB1904221A70A6E029
:1021CC001B2320229B18DB1908221A709FE01B236B
:1021DC0020229B18DB1910221A7098E07B6A1B686E
:1021EC007B4A934231D1794B5B6D0C2213400C2B03
:1021FC001DD023D8082B0CD020D8002B02D0042BB8
:10220C000ED01BE01B2320229B18DB1900221A7016
:10221C007DE01B2320229B18DB1902221A7076E02A
:10222C001B2320229B18DB1904221A706FE01B233E
:10223C0020229B18DB1908221A7068E01B2320222D
:10224C009B18DB1910221A7061E07B6A1B68614ACB
:10225C00934206D11B2320229B18DB1900221A70F3
:10226C0055E07B6A1B685C4A934206D11B232022F3
:10227C009B18DB1900221A7049E07B6A1B68504AD4
:10228C0093423ED1514B5A6DC0231B011340C022C7
:10229C001201934227D0C022120193422AD88022E5
:1022AC001201934211D080221201934222D8002BAA
:1022BC0004D08022D20093420ED01BE01B2320229C
:1022CC009B18DB1900221A7021E01B2320229B187B
:1022DC00DB1902221A701AE01B2320229B18DB192F
:1022EC0004221A7013E01B2320229B18DB190822EE
:1022FC001A700CE01B2320229B18DB1910221A7079
:10230C0005E01B2320229B18DB1910221A707B6A14
:10231C001B682B4A934200D0A9E01B2320229B1858
:10232C00DB191B78082B15D018DC042B0DD015DC11
:10233C00002B02D0022B05D010E0FFF7FDFB0300B1
:10234C007B6314E0254B7B6311E0FFF769FB030013
:10235C007B630CE080231B027B6308E000237B6320
:10236C001A2320229B18DB1901221A70C0467B6BA2
:10237C00002B00D14BE17B6A5A6A194B5200D35A9D
:10238C001900786BFDF7B8FE0300BB627B6A5A68D4
:10239C0013005B009B18BA6A9A4205D37B6A5B6890
:1023AC001B03BA6A9A421DD91A2320229B18DB19E7
:1023BC0001221A702BE1C046F369FFCFFFCFFFFF5C
:1023CC0000800040FFF4FF11003801400010024073
:1023DC000044004000480040004C00400024F40041
:1023EC00603700087B6BBB610023FB617B6A5A6A18
:1023FC00924B5200D35A3B6100237B613A697B6953
:10240C00B869F969FDF7EEFF02000B00110E1D0211
:10241C000D4314027B6A5B685B08BB600023FB60A6
:10242C00B868F968001969417B6A5B683B600023F6
:10243C007B603A687B68FDF7D5FF02000B00130048
:10244C003B633A6BC0239B009A4209D33A6B8023BF
:10245C005B039A4204D27B6A1B683A6BDA60D6E063
:10246C001A2320229B18DB1901221A70CFE07B6AF9
:10247C00DA6980231B029A4200D070E01B232022D1
:10248C009B18DB191B78082B15D018DC042B0DD0EE
:10249C0015DC002B02D0022B05D010E0FFF74CFB13
:1024AC0003007B6314E0664B7B6311E0FFF7B8FA23
:1024BC0003007B630CE080231B027B6308E000239A
:1024CC007B631A2320229B18DB1901221A70C04649
:1024DC007B6B002B00D19AE07B6A5A6A574B5200F7
:1024EC00D35A1900786BFDF707FE03005A007B6A7C
:1024FC005B685B08D2187B6A5B6819001000FDF7FB
:10250C00FBFD03003B633B6B0F2B21D93A6B802304
:10251C005B029A421CD23B6B9AB20E202024031908
:10252C00DB190F218A431A803B6B5B089BB2072295
:10253C00134099B20319DB190219D21912880A43F4
:10254C001A807B6A1B680219D2191288DA605EE065
:10255C001A2320229B18DB1901221A7057E01B2327
:10256C0020229B18DB191B78082B15D018DC042BA8
:10257C000DD015DC002B02D0022B05D010E0FFF79C
:10258C00DBFA03007B6314E02D4B7B6311E0FFF758
:10259C0047FA03007B630CE080231B027B6308E09B
:1025AC0000237B631A2320229B18DB1901221A704B
:1025BC00C0467B6B002B2AD07B6A5A6A1F4B520099
:1025CC00D35A1900786BFDF797FD03001A007B6A4C
:1025DC005B685B08D2187B6A5B6819001000FDF71A
:1025EC008BFD03003B633B6B0F2B0AD93A6B8023AB
:1025FC005B029A4205D23B6B9AB27B6A1B68DA602B
:10260C0005E01A2320229B18DB1901221A707B6A21
:10261C006A22012199527B6A6822012199527B6AB4
:10262C0000225A677B6A00229A671A2320229B1881
:10263C00DB191B781800BD4610B0B0BD6037000820
:10264C000024F40080B582B000AF78607B689B6A90
:10265C00082213400BD07B681B685B684A4A134006
:10266C0019007B689A6B7B681B680A435A607B680D
:10267C009B6A012213400BD07B681B685B68434A42
:10268C00134019007B68DA6A7B681B680A435A603E
:10269C007B689B6A022213400BD07B681B685B68CB
:1026AC003B4A134019007B681A6B7B681B680A4312
:1026BC005A607B689B6A042213400BD07B681B68B2
:1026CC005B68344A134019007B685A6B7B681B6843
:1026DC000A435A607B689B6A102213400BD07B68BC
:1026EC001B689B682C4A134019007B68DA6B7B686B
:1026FC001B680A439A607B689B6A202213400BD0AC
:10270C007B681B689B68254A134019007B681A6C10
:10271C007B681B680A439A607B689B6A4022134063
:10272C001DD07B681B685B681D4A134019007B68D1
:10273C005A6C7B681B680A435A607B685A6C80230E
:10274C005B039A420BD17B681B685B68154A13408C
:10275C0019007B689A6C7B681B680A435A607B681B
:10276C009B6A802213400BD07B681B685B680E4A07
:10277C00134019007B68DA6C7B681B680A435A604B
:10278C00C046BD4602B080BDFF7FFFFFFFFFFDFFCF
:10279C00FFFFFEFFFFFFFBFFFFEFFFFFFFDFFFFF72
:1027AC00FFFFEFFFFFFF9FFFFFFFF7FF80B592B02A
:1027BC0002AF78607B68902200219950FEF744FAB2
:1027CC000300FB637B681B681B6808221340082B03
:1027DC002DD1FB6B802291037868474A009200222E
:1027EC0000F08EF8031E22D0EFF310837B627B6A1D
:1027FC00BB630123BB62BB6A83F31088C0467B6852
:10280C001B681A687B681B6880218A431A60BB6B43
:10281C00FB62FB6A83F31088C0467B688822202108
:10282C0099507B68842200219954032360E07B68D3
:10283C001B681B6804221340042B46D1FB6B8022BF
:10284C00D10378682C4A0092002200F059F8031E3C
:10285C003BD0EFF31083FB60FB687B6301233B6190
:10286C003B6983F31088C0467B681B681A687B68D9
:10287C001B6822490A401A607B6B7B617B6983F37E
:10288C001088C046EFF31083BB61BB693B63012327
:10289C00FB61FB6983F31088C0467B681B689A68F0
:1028AC007B681B6801218A439A603B6B3B623B6AE5
:1028BC0083F31088C0467B688C22202199507B685A
:1028CC00842200219954032312E07B688822202162
:1028DC0099507B688C22202199507B680022DA6603
:1028EC007B6800221A677B6884220021995400239C
:1028FC001800BD4610B080BDFFFFFF01DFFEFFFFDB
:10290C0080B584B000AFF860B9603B60FB1D1A70F5
:10291C0051E0BB6901334ED0FEF796F902003B68DB
:10292C00D31ABA699A4202D3BB69002B01D1032393
:10293C0051E0FB681B681B68042213403BD0BB684A
:10294C00802B38D0BB68402B35D0FB681B68DB690B
:10295C0008221340082B11D1FB681B6808221A624D
:10296C00FB68180000F03CF8FB6890220821995095
:10297C00FB6884220021995401232CE0FB681B681E
:10298C00DA6980231B011A4080231B019A4212D161
:10299C00FB681B68802212011A62FB68180000F0A9
:1029AC001FF8FB68902220219950FB68842200219B
:1029BC00995403230FE0FB681B68DB69BA6813406A
:1029CC00BA68D31A5A425341DBB21A00FB1D1B786A
:1029DC009A429ED000231800BD4604B080BD000072
:1029EC0080B58EB000AF7860EFF310837B617B69AC
:1029FC007B630123BB61BB6983F31088C0467B6892
:102A0C001B681A687B681B6826490A401A607B6B36
:102A1C00FB61FB6983F31088C046EFF310833B62C4
:102A2C003B6A3B6301237B627B6A83F31088C0465D
:102A3C007B681B689A687B681B681B490A409A6014
:102A4C003B6BBB62BB6A83F31088C0467B68DB6E52
:102A5C00012B18D1EFF31083BB60BB68FB62012321
:102A6C00FB60FB6883F31088C0467B681B681A68A0
:102A7C007B681B6810218A431A60FB6A3B613B69C7
:102A8C0083F31088C0467B688C22202199507B6888
:102A9C000022DA667B6800225A67C046BD460EB03B
:102AAC0080BDC046DFFEFFFFFEFFFFEF80B584B0A8
:102ABC0000AF78607B6884229B5C012B01D10223E0
:102ACC0027E07B688422012199547B688822242189
:102ADC0099507B681B681B68FB607B681B681A68D5
:102AEC007B681B6801218A431A60FB680B4A134000
:102AFC00FB607B6800225A667B681B68FA681A6068
:102B0C007B688822202199507B688422002199546B
:102B1C0000231800BD4604B080BDC046FFFFFFDF98
:102B2C0080B584B000AF786039607B6884229B5C90
:102B3C00012B01D102232EE07B68842201219954C0
:102B4C007B688822242199507B681B681B68FB607A
:102B5C007B681B681A687B681B6801218A431A60B2
:102B6C007B681B689B68DB00D9087B681B683A682C
:102B7C000A439A607B68180000F054F87B681B6865
:102B8C00FA681A607B688822202199507B6884221D
:102B9C000021995400231800BD4604B080BD0000EC
:102BAC0080B584B000AF786039607B6884229B5C10
:102BBC00012B01D102232FE07B688422012199543F
:102BCC007B688822242199507B681B681B68FB60FA
:102BDC007B681B681A687B681B6801218A431A6032
:102BEC007B681B689B680E4A134019007B681B6846
:102BFC003A680A439A607B68180000F013F87B6807
:102C0C001B68FA681A607B688822202199507B68BF
:102C1C0084220021995400231800BD4604B080BDC5
:102C2C00FFFFFFF1F0B585B000AF78607B685B6E9D
:102C3C00002B08D17B686A22012199527B6868229B
:102C4C000121995243E00F26BB1908221A700E205D
:102C5C003B1808221A707B681B689B685B0EDAB203
:102C6C000D243B1907210A401A707B681B689B686E
:102C7C005B0FDAB20C257B1907210A401A703B183E
:102C8C001B787A19127814498A5C5A4310007B1904
:102C9C001B78124AD35C1900FDF7B8FA030099B2FD
:102CAC007B686A229952BB191B783A1912780A4927
:102CBC008A5C5A4310003B191B78084AD35C1900F4
:102CCC00FDF7A4FA030099B27B6868229952C046BA
:102CDC00BD4605B0F0BDC046783700088037000807
:102CEC00002310B504000360436083608181436658
:102CFC00C281036143618361190008225C3000F0DA
:102D0C00FFF90B4B246263620A4BA3620A4BE3622A
:102D1C000A4B23630A4B9C4205D00A4B9C4202D0BF
:102D2C00094B9C4203D12000583000F069FA10BDC9
:102D3C00352F00085D2F0008952F0008C12F0008C3
:102D4C00A0010020080200207002002010B5034AE8
:102D5C000349044800F06CF810BDC0468C000020FC
:102D6C00193500089C00002041680B4B10B504007D
:102D7C00994201D000F0CAFBA168084B994202D0DD
:102D8C00200000F0C3FBE168054B994202D0200003
:102D9C0000F0BCFB10BDC046A001002008020020C2
:102DAC007002002010B5094B094A04211A60094829
:102DBC000022FFF795FF012209210748FFF790FF3A
:102DCC00022212210548FFF78BFF10BDD80200200C
:102DDC00592D0008A00100200802002070020020DC
:102DEC0010B5024800F00DFA10BDC046E1020020FB
:102DFC0010B5024800F006FA10BDC046E1020020F2
:102E0C0010B50400FFF7ECFF236A002B02D0FFF78C
:102E1C00EFFF10BD044B2362044B1B68002BF6D153
:102E2C00FFF7C0FFF3E7C046752D0008D80200205D
:102E3C00F7B51400002600900191A5686768013F62
:102E4C0004D52468002CF8D13000FEBDAB89012BD1
:102E5C0008D90E22AB5E013304D029000098019BE7
:102E6C00984706436835EAE7036A70B505000E001B
:102E7C008468002B01D1FFF7C3FF636EDB0705D419
:102E8C00A3899B0502D4A06D00F0BBF9A3891B0795
:102E9C0002D52369002B1FD12100280000F0D2F8A5
:102EAC00002819D001256D42636EDB0705D4A38978
:102EBC009B0502D4A06D00F0A5F9280070BD013669
:102ECC00A360002B04DAA2699A4216DC0A2914D0FA
:102EDC0023685A1C22601970A3683178013B0029C1
:102EEC00EDD1A360002B0FDA220028000A3100F08C
:102EFC0067F80130D6D00A25D6E72200280000F06A
:102F0C005FF80130E8D1CDE723685A1C22600A2211
:102F1C001A70F0E710B5034B01001868FFF7A4FF17
:102F2C0010BDC0469800002070B50C000E25495FFE
:102F3C0000F014F9002803DB636D1B18636570BD8A
:102F4C00A389024A1340A381F9E7C046FFEFFFFFB4
:102F5C00F8B51F008B8905000C001600DB0505D5A4
:102F6C000E23C95E0022022300F0E4F8A389054A6F
:102F7C0028001340A38132000E23E15E3B0000F0D9
:102F8C0001F9F8BDFFEFFFFF70B50C000E25495F8E
:102F9C0000F0D0F8A389421C03D1054A1340A38149
:102FAC0070BD802252011343A3816065F8E7C046CF
:102FBC00FFEFFFFF10B50E23C95E00F0A9F810BD9E
:102FCC00F8B506000D001400002804D0036A002B8D
:102FDC0001D1FFF715FFA369A360A3891B0702D5D5
:102FEC002369002B09D12100300000F02BF80028B8
:102FFC0003D001256D422800F8BD23692068EFB28B
:10300C00C01A6369EDB2834205DC2100300000F088
:10301C007DFA0028EDD1A3680130013BA360236841
:10302C005A1C22601F706369834204D0A389DB079A
:10303C00E1D50A2DDFD12100300000F067FA00281D
:10304C00D9D0D6E72D4B70B5050018680C000028B8
:10305C0004D0036A002B01D1FFF7D2FE0C23E25EF1
:10306C00130723D4D30607D409232B604023012054
:10307C001343A38140423AE0520713D5616B0029F8
:10308C0008D023004433994202D0280000F0BCF849
:10309C00002363632422A3899343A38100236360E9
:1030AC00236923600823A2891343A3812369002B7E
:1030BC000BD1A0218022A389890092000B4093425E
:1030CC0003D02100280000F077FA0C23E25E0121E6
:1030DC0013000B400A420BD00023A36063695B42D0
:1030EC00A36100202369834201D11306BED470BDB5
:1030FC00910700D46369A360F3E7C04698000020F1
:10310C0003008218934200D1704719700133F9E71C
:10311C00002370B5064D040008002B60FDF786FCFB
:10312C00431C03D12B68002B00D0236070BDC0461C
:10313C00DC02002070B50400080011001A00002306
:10314C00054D2B60FDF793FC431C03D12B68002B22
:10315C0000D0236070BDC046DC02002070B50400B6
:10316C00080011001A000023054D2B60FDF741FCEF
:10317C00431C03D12B68002B00D0236070BDC046CC
:10318C00DC02002070B50400080011001A000023B6
:10319C00054D2B60FDF776FA431C03D12B68002BF1
:1031AC0000D0236070BDC046DC020020014B1868C3
:1031BC007047C0469800002070B500260C4C0D4D91
:1031CC00641BA410A64209D1002600F06DFA0A4C2B
:1031DC000A4D641BA410A64205D170BDB300EB5878
:1031EC0098470136EEE7B300EB5898470136F2E703
:1031FC009037000890370008943700089037000883
:10320C00704770477047000070B505000C1E10D059
:10321C00043C2368002B00DAE418280000F0E0F8E6
:10322C001D4A1368002B05D163601460280000F060
:10323C00DFF870BDA34208D9206821188B42F3D166
:10324C0019685B6809182160EEE71A005B68002BAF
:10325C0001D0A342F9D911685018A0420BD12068B3
:10326C000918501811608342E0D118685B68411846
:10327C0011605360DAE7A04202D90C232B60D5E72A
:10328C00206821188B4203D119685B6809182160EA
:10329C0063605460CAE7C046E802002070B50F4E68
:1032AC000D0031680400002902D100F0EBF9306008
:1032BC002900200000F0E6F9431C03D101256D42E2
:1032CC00280070BD0323C51C9D43A842F8D0291AC1
:1032DC00200000F0D7F90130F2D1EFE7E402002032
:1032EC00F7B50322CB1C9343083305001F000C2BAE
:1032FC0034D20C27B94233D8280000F071F8374E7D
:10330C0033681C00002C2FD139002800FFF7C6FFB2
:10331C000400431C5FD134680094009B002B4AD1FD
:10332C00002C52D023682800E3180099019300F078
:10333C00A9F9019B834248D123682800FF1A390060
:10334C00FFF7ACFF013040D02368DB1923603368F2
:10335C005A68002A33D1009B336019E0002BC9DA7C
:10336C000C232B600020FEBD2168C91B20D40B2927
:10337C000AD9E2192760A34204D132606368116054
:10338C00536005E05A60F9E76268A3420ED13260DF
:10339C00280000F02DF8200007220B30231D90434D
:1033AC00C21A9842DFD01B1AA350DCE75A60EFE731
:1033BC0023006468A6E7009C63680093ADE71A00DD
:1033CC005B68A342FBD10023DAE70C2328002B60B7
:1033DC0000F00EF8C6E70760DAE7C046E802002006
:1033EC0010B50248FFF70DFF10BDC046E0020020EB
:1033FC0010B50248FFF706FF10BDC046E0020020E2
:10340C00F7B50C228B5E05000C001A0756D44A68DF
:10341C00002A02DC0A6C002A4EDDE76A002F4BD032
:10342C00002280202E682A601A004001216A024086
:10343C00034233D0626DA3895B0706D56368D21A49
:10344C00636B002B01D0236CD21A00232800E76A8F
:10345C00216AB847A289431C06D129681D2946D880
:10346C00294B0B41DB0742D40023636023692360A3
:10347C00D20405D5431C02D12B68002B00D160650A
:10348C00616B2E60002917D023004433994202D07F
:10349C002800FFF7B9FE002363630DE00123280029
:1034AC00B8470200431CC6D12B68002BC3D01D2B80
:1034BC0001D0162B1AD12E6000201EE00E69002EB2
:1034CC00FAD00F680E60BA1B019200229B0700D144
:1034DC004A69A260019B002BEEDDA36A32001F003B
:1034EC002800019B216AB847002807DCA2894023E9
:1034FC00012013431BB2A3814042FEBD019B361831
:10350C001B1A0193E6E7C046FEFFBFDF0B6970B5DF
:10351C0005000C00002B02D10025280070BD0028EE
:10352C0004D0036A002B01D1FFF76AFC0C22A35EC6
:10353C00002BF1D0626ED20704D49B0502D4A06D8F
:10354C00FFF75FFE28002100FFF75AFF636E0500AE
:10355C00DB07E2D4A3899B05DFD4A06DFFF752FEF5
:10356C00DBE7000070B50E001D000E23C95E1400D1
:10357C0096B000290CDAB2898023110019401A4246
:10358C0014D18023DB0000202960236016B070BDAD
:10359C006A4600F053F80028EDDBF02301991B027A
:1035AC001940044BC9184B425941EAE7002140230A
:1035BC00E9E7C04600E0FFFFF0B502268B89050065
:1035CC000C0085B0334207D02300473323602361BE
:1035DC000123636105B0F0BD03AB02AAFFF7C2FF84
:1035EC00029F019039002800FFF77AFE002808D1CD
:1035FC000C22A35E9A05EDD4032293431E43A681AD
:10360C00E2E78023A28920601343A381039B2061FE
:10361C006761002B0CD028000E23E15E00F020F82F
:10362C00002805D00323A2899A43023B1343A381AC
:10363C00A389019A1343A381CCE70000002370B542
:10364C00064D0400080011002B60FDF7F9F9431C2E
:10365C0003D12B68002B00D0236070BDDC0200204E
:10366C00002370B5064D040008002B60FDF7F6F939
:10367C00431C03D12B68002B00D0236070BDC046C7
:10368C00DC020020002370B5064D040008002B60FE
:10369C00FDF7F8F9431C03D12B68002B00D02360F5
:1036AC0070BDC046DC020020F8B5C046F8BC08BCB2
:1036BC009E467047F8B5C046F8BC08BC9E4670479D
:1036CC00426F6F746C6F61646572205374617274B5
:1036DC00200D0000415050205374617274202E2E26
:1036EC002E200D004E6F2041505020666F756E6479
:1036FC00200D000000000000000000000000000091
:10370C0000000000000000000000000000000000AD
:10371C000000000001000000020000000300000097
:10372C000400000006000000070000000800000074
:10373C000900000000000000000000000000000074
:10374C000000000001000000020000000300000067
:10375C0004000000010002000400060008000A003A
:10376C000C0010002000400080000001010101034A
:0C377C000701000008040204080101011C
:08378800A8CCFF7F0100000046
:04379000E500000848
:04379400BD0000086C
:103798000024F40004000000010000000000000004
:1037A80003000000A00100209C0000200000000091
:1037B800A001002008020020700200200000000084
:1037C80000000000000000000000000000000000F1
:1037D80000000000000000000000000000000000E1
:1037E80000000000000000000000000000000000D1
:0837F8000000000000000000C9
:020000040801F1
:0C8000000D800108318001084980010852
:10800C0080B582B000AF7860A023DB05202118007A
:10801C00E9F77DF87B681800E8F720FEC046BD46FE
:10802C0002B080BD80B500AFA023DB05012220216A
:10803C001800E9F74FF8C046BD4680BD80B500AFCB
:10804C00A023DB05002220211800E9F743F8C046E5
:04805C00BD4680BDE0
:0400000508000B09DB
:00000001FF
